:02000000E72BEC
:08000800FF00030E8312031335
:10001000B4000A0EB500040EB6008A110A122F2C85
:1000200000000000DE0B10280800831203135603A3
:10003000031D0800B908BA08B90A0319BA0A390831
:10004000C43A043003193A06031D08004D03CD00DD
:100050005503D500550A031D2F28D501D6014D0A99
:10006000031D36283B30CD004E03CE00B901BA0146
:100070000800EF308316031305058500EF30831267
:100080000505E200103062048500EF308316050597
:100090008500EF30831205058500080083120313E5
:1000A0004F08013A03197028033A03197628013AD8
:1000B00003197C28073A03198228013A0319882872
:1000C000033A03198E28013A031994280F3A0319A9
:1000D0009A28013A0319A028093A0319A628AC283E
:1000E0008316860106308312860008008316860177
:1000F0005B30831286000800831686014F3083121E
:100100008600080083168601663083128600080088
:10011000831686016D3083128600080083168601DF
:100120007D30831286000800831686010730831213
:1001300086000800831686017F308312860008003F
:10014000831686016F3083128600080083168601AD
:100150003F308312860008004F080A3A0319B4287A
:10016000F53A0319BA280800831686017330831202
:100170008600080083168601831286010800831218
:100180000313D801083058020318E8280130480545
:10019000E200E301E208031D631445116308031D37
:1001A0004515F7308316050585008312451DDF28A8
:1001B000F7300505E200083062048500E228F730D8
:1001C000050585003920C8080310C80CD80AC228C4
:1001D000D901083059020318080001304905E2002E
:1001E000E301E208031D631445116308031D45156F
:1001F000F7308316050585008312451D0629F73063
:100200000505E2000830620485000929F73005057C
:1002100085003920C9080310C90CD90AE928FF3024
:1002200083120313CF004E201030C800C901BF2035
:100230000130831605048500013083120505E200B4
:10024000E30162030319E30AC5126308031DC5161F
:100250000230831605048500023083120505E20092
:10026000E301023062020319E30AC5136308031DA8
:10027000C517DF015418DF0ADE0146030319DE0A41
:100280005E085F0403195029E301C51AE30AE2017D
:10029000C51BE20A62086305031950294703C7001A
:1002A000E101C51EE10AE001541CE00A6008610595
:1002B00003195D29C51454146A29C510E301E30A22
:1002C000C708031D6310E2015418E20A62086305BF
:1002D000031D5410C51B7029C5150130C6007E29A9
:1002E000C511E301E30AC708031D6310E2014603D9
:1002F0000319E20A62086305031DC601C708031D4E
:1003000008001430C7000800FF3083120313CF0029
:100310004E200830C800C901BF20013083160504F3
:100320008500013083120505E000E1016003031937
:10033000E10AC5126108031DC516023083160504C3
:100340008500023083120505E000E1010230600201
:100350000319E10AC5136108031DC5174603031DF0
:10036000BE29E101C51EB529E10AE001C51BE00A6D
:10037000600861050319BE294403C400DF01C51EDE
:10038000DF0ADE01DE0AC608031D5E105E085F0597
:100390000319D72945170130C600D608031DD329F4
:1003A0000130D600E52956030319D601E529451386
:1003B000E101E10AC408031D6110E00146030319CD
:1003C000E00A60086105031DC601C51BE929451443
:1003D000EA294510C408031D08003230C400080093
:1003E000FF3083120313CF004E200430C800C90130
:1003F000BF200130831605048500013083120505F6
:10040000E000E10160030319E10AC5126108031D60
:10041000C5160230831605048500023083120505D7
:10042000E000E101023060020319E10AC51361082E
:10043000031DC517D41C292AE101C51E202AE10A83
:10044000E001C51BE00A600861050319292A4C0375
:10045000CC00DF01C51EDF0ADE01D41CDE0A5E0807
:100460005F050319372A0130D300D414442AD3017D
:10047000E101E10ACC08031D6110E001D418E00A93
:1004800060086105031DD410C51B482A5415492A6C
:100490005411CC08031D08001430CC000800E401FE
:1004A000E201E301E31908000310E20DE00DE40DA1
:1004B00061086402031C5E2AE4006214E30A522A03
:1004C000E201E401E301E31908000310E40DDE0D8D
:1004D000E20D5F086202031C6F2AE2006414E30A63
:1004E000632A83120313DF015108C73C031CDF0A90
:1004F000DE01FF305102031CDE0A5E085F050319AE
:10050000832AC730D100510A0319D101E1015008F3
:10051000C73C031CE10AE001FF305002031CE00A63
:10052000600861050319962AC730D000500A0319E4
:10053000D001080083120313541DAA2A7F308316AA
:10054000060586007F3083120605DE0080305E04DB
:100550008600B22A7F308316060586007F3083121C
:1005600006058600C51DBB2A451CB92A0E30D500DC
:10057000BB2A1830D500C51CC72A451CC52AD1087E
:100580000319C72A5103D100C72A510AD1005303C6
:10059000031D0800451CD22AD00803190800500387
:1005A000D0000800500AD0000800FF308312031367
:1005B000CF004E20BF205708CF004E20C830DE00AD
:1005C00010200800F02184210F2108000730831239
:1005D00003139F00C03083168100FF308312C800D0
:1005E000C9001830D500D101D0010130CA000A304D
:1005F000CE00CD01D6011430CC003230C40014300E
:10060000C7000B1712109214121507301205DA00EA
:1006100078305A0492000F30831692008B178C1496
:100620008312B901BA017F308316060586007F3038
:100630008312060586007122E222C8010830C90033
:100640005108DE006430DF0060226408D700D7085C
:10065000031D2C2BFF30D700D522C8010430C90060
:100660005108DE000A30DF0060226408E0000A3032
:10067000E1004F226408D700DB01DB0AD708031D25
:100680005B10DA0164305102031CDA0A5A085B0578
:1006900003194C2BFF30D700D522C8010230C90006
:1006A0005108E0000A30E1004F226408D700D5224B
:1006B000C8010130C9005008DE006430DF0060224C
:1006C0006408D700DD01DD0AD708031D5D10DC01D9
:1006D00064305002031CDC0A5C085D050319722BB0
:1006E000FF30D700D5228030C800C9015008DE0095
:1006F0000A30DF0060226408E0000A30E1004F2287
:100700006408D700D708031D872BFF30D700D522F8
:100710004030C800C9015008E0000A30E1004F2213
:100720006408D700D5221030C800C9015508DE0082
:100730000A30DF0060226408D700D708031DA22B0F
:10074000FF30D700D5220830C800C9015508E000A5
:100750000A30E1004F226408D700D5220430C800D7
:10076000C9014A08D700D522C8018030C9004E0807
:10077000DE000A30DF0060226408D700D708031DBE
:10078000C32BFF30D700D522C8014030C9004E0826
:10079000E0000A30E1004F226408D700D522C801EA
:1007A0002030C9004D08DE000A30DF0060226408F6
:1007B000D700D522C8011030C9004D08E0000A302A
:1007C000E1004F226408D700D5229A221B2BD53096
:1007D00083120313A000C430A100BB30A200DC30A0
:1007E000A300A401A501A601A701A801A901AA01CE
:1007F000AB01AC01AD01AE01AF01BE01BF01B7015C
:10080000B801C001C101C201C301B001B101B2010F
:10081000B301BC01BD01BB013230C4004510C5109D
:10082000C6013230C700FF30C800FF30C90045158F
:10083000C5110130CA00CB01B901BA01CF0145127F
:10084000C5164513C517D1010130D200D30154108C
:10085000D410D601D70154118A110A12E62A831244
:1008600003138C1C382C83168C1C382C15208C10F0
:100870008312360E8400350E8A00340E8300FF0E7C
:040880007F0E0900DE
:02400E000A3F67
:00000001FF
