:02000000222CB0
:08000800FF00030E8312031335
:10001000B4000A0EB500040EB6008A110A126D2C47
:1000200000000000E00B1028080083120313E80111
:100030004719E80AE701D31DE70A670868050319AD
:1000400047287F308316060586007F308312060519
:10005000EB0080306B048600BB08BC08BB0A0319A8
:10006000BC0AEA015008003C031CEA0AE9014F08F7
:10007000003C031CE90A69086A0403194F283B087D
:100080004C3A0E3003193C06031947114F287F30B4
:100090008316060586007F30831206058600580306
:1000A000031D0800B908BA08B90A0319BA0A3908C1
:1000B000C43A043003193A06031D08004F03CF0069
:1000C0005703D700570A031D6828D701D8014715E1
:1000D0004F0A031D6F283B30CF005003D000B901F9
:1000E000BA010800EF308316031305058500EF30D1
:1000F00083120505E400103064048500EF30831698
:1001000005058500EF308312050585000800831280
:1001100003135108013A0319A928033A0319AF2818
:10012000013A0319B528073A0319BB28013A031904
:10013000C128033A0319C728013A0319CD280F3AF9
:100140000319D328013A0319D928093A0319DF28DA
:10015000E528831686010630831286000800831680
:1001600086015B30831286000800831686014F30BB
:10017000831286000800831686016630831286008B
:100180000800831686016D308312860008008316EE
:1001900086017D30831286000800831686010730B1
:1001A000831286000800831686017F308312860042
:1001B0000800831686016F308312860008008316BC
:1001C00086013F3083128600080051080A3A03195D
:1001D000ED28F53A0319F3280800831686017330D9
:1001E00083128600080083168601831286010800A8
:1001F00083120313DA0108305A020318212901304F
:100200004A05E400E501E408031D6514C71165080B
:10021000031DC715F7308316050585008312C71D1A
:100220001829F7300505E4000830640485001B290F
:10023000F730050585007220CA080310CA0CDA0AD7
:10024000FB28DB0108305B020318080001304B0576
:10025000E400E501E408031D6514C7116508031DEA
:10026000C715F7308316050585008312C71D3F2982
:10027000F7300505E4000830640485004229F730B2
:10028000050585007220CB080310CB0CDB0A222960
:10029000FF3083120313D10087201030CA00CB0136
:1002A000F82001308316050485000130831205050E
:1002B000E400E50164030319E50A47136508031D1B
:1002C00047170230831605048500023083120505A6
:1002D000E400E501023064020319E50A53106508E1
:1002E000031D5314E101D318E10AE0014803031987
:1002F000E00A6008610403198929E501471BE50A42
:10030000E4015318E40A64086505031989294903BF
:10031000C900E301471FE30AE201D31CE20A6208B5
:10032000630503199629C714D314A329C710E5013F
:10033000E50AC908031D6510E401D318E40A64083E
:100340006505031DD3105318A92947160130C800AD
:10035000B7294712E501E50AC908031D6510E40144
:1003600048030319E40A64086505031DC801C908A8
:10037000031D08001430C9000800FF308312031366
:10038000D10087200830CA00CB01F8200130831645
:1003900005048500013083120505E200E3016203D4
:1003A0000319E30A47136308031D47170230831636
:1003B00005048500023083120505E200E3010230E6
:1003C00062020319E30A53106308031D5314480320
:1003D000031DF729E301471FEE29E30AE201531841
:1003E000E20A620863050319F7294603C600E10122
:1003F000471FE10AE001E00AC808031D6010600819
:1004000061050319102AC7170130C800D808031D59
:100410000C2A0130D8001E2A58030319D8011E2ABD
:10042000C713E301E30AC608031D6310E201480392
:100430000319E20A62086305031DC8015318222A42
:100440004714232A4710C608031D08003230C6008F
:100450000800FF3083120313D10087200430CA0044
:10046000CB01F8200130831605048500013083128A
:100470000505E200E30162030319E30A4713630879
:10048000031D4717023083160504850002308312CE
:100490000505E200E301023062020319E30A53108A
:1004A0006308031D5314531D622AE301471F592A91
:1004B000E30AE2015318E20A620863050319622A9B
:1004C0004E03CE00E101471FE10AE001531DE00A9F
:1004D000600861050319702A0130D60053157D2A82
:1004E000D601E301E30ACE08031D6310E2015319AC
:1004F000E20A62086305031D53115318812AD315BC
:10050000822AD311CE08031D08001430CE00080043
:10051000E601E401E501E51908000310E40DE20D30
:10052000E60D63086602031C972AE6006414E50AD8
:100530008B2AE401E601E501E51908000310E60D48
:10054000E00DE40D61086402031CA82AE4006614AF
:10055000E50A9C2A83120313E1015408C73C031CDB
:10056000E10AE001FF305402031CE00A6008610563
:100570000319BC2AC730D400540A0319D401E3017B
:100580005208C73C031CE30AE201FF305202031C7D
:10059000E20A620863050319CF2AC730D200520A63
:1005A0000319D201080083120313D31DE32A7F30FD
:1005B0008316060586007F3083120605E000803032
:1005C00060048600EB2A7F308316060586007F30A4
:1005D000831206058600471EF42A471CF22A0E30B5
:1005E000D700F42A1830D700C71C002B471CFE2A5E
:1005F000D4080319002B5403D400002B540AD40050
:100600005603031D0800471C0B2BD20803190800D2
:100610005203D2000800520AD2000800FF308312B1
:100620000313D1008720F8205908D1008720C83053
:10063000E000102008002922BD21482108000730D1
:10064000831203139F00C03083168100FF30831292
:10065000CA00CB001830D700D401D2010130CC0041
:100660000A30D000CF01D8011430CE003230C6009D
:100670001430C9000B17121092141215073012050E
:10068000DC0078305C0492000F30831692008B17E8
:100690008C148312B901BA01BB01BC017F308316EF
:1006A000060586007F30831206058600AA221B23DA
:1006B000CA010830CB005408E0006430E100992200
:1006C0006608D900D908031D672BFF30D9000E2317
:1006D000CA010430CB005408E0000A30E10099223E
:1006E0006608E2000A30E30088226608D900DD01CE
:1006F000DD0AD908031D5D10DC0164305402031CBF
:10070000DC0A5C085D050319872BFF30D9000E2336
:10071000CA010230CB005408E2000A30E30088220C
:100720006608D9000E23CA010130CB005208E00050
:100730006430E10099226608D900DF01DF0AD90898
:10074000031D5F10DE0164305202031CDE0A5E08E6
:100750005F050319AD2BFF30D9000E238030CA008E
:10076000CB015208E0000A30E10099226608E2005D
:100770000A30E30088226608D900D908031DC22B7D
:10078000FF30D9000E234030CA00CB015208E200EE
:100790000A30E30088226608D9000E231030CA0010
:1007A000CB015708E0000A30E10099226608D90021
:1007B000D908031DDD2BFF30D9000E230830CA00F5
:1007C000CB015708E2000A30E30088226608D9000E
:1007D0000E230430CA00CB014C08D9000E23CA01F5
:1007E0008030CB005008E0000A30E1009922660812
:1007F000D900D908031DFE2BFF30D9000E23CA01F2
:100800004030CB005008E2000A30E300882266083E
:10081000D9000E23CA012030CB004F08E0000A3077
:10082000E10099226608D9000E23CA011030CB00DE
:100830004F08E2000A30E30088226608D9000E2340
:10084000D322562BD53083120313A000C430A1004D
:10085000BB30A200DC30A300A401A501A601A701C2
:10086000A801A901AA01AB01AC01AD01AE01AF0124
:10087000C001C101B701B801C201C301C401C50172
:10088000B001B101B201B301BE01BF01BD013230FF
:10089000C6004710C710C8013230C900FF30CA0077
:1008A0004711FF30CB00C71547120130CC00CD01F6
:1008B000B901BA01D101C712BB01BC014717C71367
:1008C0005314D4010130D500D601D3105311D801EF
:1008D000D901D3118A110A121F2B831203138C1C06
:1008E000762C83168C1C762C15208C108312360ED9
:1008F0008400350E8A00340E8300FF0E7F0E09003F
:02400E000A3F67
:00000001FF
