:02000000FD2AD7
:08000800FF00030E8312031335
:10001000B4000A0EB500040EB6008A110A12412B74
:1000200000000000DD0B10280800EF3083160313DA
:1000300005058500EF3083120505DD0010305D04F5
:100040008500EF30831605058500EF308312050526
:1000500085000800831203134A08013A03194C284B
:10006000033A03195228013A03195828073A031989
:100070005E28013A03196428033A03196A28013AF1
:10008000031970280F3A03197628013A03197C28BE
:10009000093A0319822888288316860106308312BC
:1000A00086000800831686015B30831286000800F4
:1000B000831686014F30831286000800831686015E
:1000C0006630831286000800831686016D30831225
:1000D00086000800831686017D30831286000800A2
:1000E0008316860107308312860008008316860176
:1000F0007F30831286000800831686016F308312DA
:1001000086000800831686013F30831286000800AF
:100110004A080A3A03199028F53A03199628080064
:1001200083168601733083128600080083168601C9
:1001300083128601080083120313D501083055028B
:100140000318C42801304505DD00DE01DD08031D6C
:100150005E1443115E08031D4315F7308316050531
:1001600085008312431DBB28F7300505DD000830EC
:100170005D048500BE28F730050585001520C508FB
:100180000310C50CD50A9E28D60108305602031864
:10019000080001304605DD00DE01DD08031D5E14A8
:1001A00043115E08031D4315F730831605058500CE
:1001B0008312431DE228F7300505DD0008305D0499
:1001C0008500E528F730050585001520C6080310D1
:1001D000C60CD60AC528FF3083120313CA002A2092
:1001E0001030C500C6019B200A30DD001020013010
:1001F000831605048500013083120505DB00DC0150
:100200005B030319DC0AC3125C08031DC31602302A
:10021000831605048500023083120505DB00DC012E
:1002200002305B020319DC0AC3135C08031DC31709
:10023000C31A1C29C3141D29C310C31B2129C315AC
:100240000800C3110800FF3083120313CA002A20DC
:100250000830C500C6019B200A30DD0010200130A7
:10026000831605048500013083120505DB00DC01DF
:100270005B030319DC0AC3125C08031DC3160230BA
:10028000831605048500023083120505DB00DC01BE
:1002900002305B020319DC0AC3135C08031DC31799
:1002A000C31A5429431755294313C31B592943140F
:1002B000080043100800FF3083120313CA002A20ED
:1002C0000430C500C6019B200A30DD00102001303B
:1002D000831605048500013083120505DD00DE016B
:1002E0005D030319DE0AC3125E08031DC316023044
:1002F000831605048500023083120505DD00DE014A
:1003000002305D020319DE0AC3135E08031DC31722
:100310004803C800DC01C31EDC0ADB01DB0AD0088D
:10032000031D5B105B085C0503199A290130CE00A0
:10033000D000A829CE01DE01DE0AC808031D5E1028
:10034000DD0150030319DD0A5D085E05031DD001C0
:10035000C31BAC295414AD295410C808031D080050
:100360003230C8000800E101DF01E001E0190800B7
:100370000310DF0DDD0DE10D5E086102031CC229D3
:10038000E1005F14E00AB629DF01E101E001E019B4
:1003900008000310E10DDB0DDF0D5C085F02031C9C
:1003A000D329DF006114E00AC72983120313DC019B
:1003B0004C08C73C031CDC0ADB01FF304C02031C69
:1003C000DB0A5B085C050319E729C730CC004C0A3F
:1003D0000319CC01DE014B08C73C031CDE0ADD011A
:1003E000FF304B02031CDD0A5D085E050319FA2984
:1003F000C730CB004B0A0319CB010800831203134B
:10040000C31D092A431C072A0E30D100092A1830BF
:10041000D100C31C152A431C132ACC080319152A22
:100420004C03CC00152A4C0ACC004E03031D0800D7
:10043000431C202ACB08031908004B03CB000800FB
:100440004B0ACB000800FF3083120313CA002A2096
:100450009B205208CA002A20FA30DD001020080034
:100460005B212321EB2008000730831203139F0038
:10047000C030831681008312C7010130C9000230E9
:10048000CF000330D300FF30C500C6000230D100DA
:10049000CC01CB013230C800C200C400D5213022CB
:1004A000C5010130C6004B08DB006430DC00C4210C
:1004B0006108D200D801D80AD208031D5810D7010C
:1004C00064304B02031CD70A5708580503196A2ADF
:1004D000FF30D20023228030C500C6014B08DB006C
:1004E0000A30DC00C4216108DD000A30DE00B321DF
:1004F0006108D200D208031D7F2AFF30D2002322D8
:100500004030C500C6014B08DD000A30DE00B321D3
:100510006108D20023221030C500C6015108DB005B
:100520000A30DC00C4216108D20023220830C50053
:10053000C6015108DD000A30DE00B3216108D20097
:1005400023220430C500C6010430D2002322C50195
:100550008030C600D201431AD20A2322C50140309E
:10056000C6004F08D2002322C5012030C600530820
:10057000D2002322C5011030C6000830D200232249
:10058000C5010830C6004C08DB006430DC00C42123
:100590006108D200D208031DCF2AFF30D2002322E7
:1005A000C5010430C6004C08DB000A30DC00C42161
:1005B0006108DD000A30DE00B3216108D200DA01F3
:1005C000DA0AD208031D5A10D90164304C02031C08
:1005D000D90A59085A050319EF2AFF30D2002322FD
:1005E000C5010230C6004C08DD000A30DE00B32130
:1005F0006108D2002322FE214E2AD5308312031334
:10060000A000C430A100BB30A200DC30A300A401D4
:10061000A501A601A701A801A901AA01AB01AC018E
:10062000AD01AE01AF01BC01BD01B701B801BE0112
:10063000BF01C001C101B001B101B201B301BA01F2
:10064000BB01B9013230C2004310C3103230C400C4
:10065000FF30C500FF30C6004315C311C701C901F3
:10066000CA014312C3164313C317CC010130CD0096
:10067000CE01CF01D001D201D30154108A110A1248
:10068000342A83120313360E8400350E8A00340E8A
:080690008300FF0E7F0E09003C
:02400E000A3F67
:00000001FF
