:02000000232DAE
:08000800FF00030E8312031335
:10001000B4000A0EB500040EB6008A110A12732D40
:1000200000000000EB0B10280800831203134D1E84
:100030000800B908BA08B90A0319BA0A04303A0222
:10004000031D2428C4303902031C08004A03CA00D7
:100050005103D1004A0A031D31284B03CB003B302A
:10006000CA00D10803194D12B901BA010800EF30D6
:100070008316031305058500EF3083120505EB0099
:1000800010306B048500EF30831605058500EF30D6
:100090008312050585000800831203134C08013AFA
:1000A00003196E28033A03197428013A03197A28B0
:1000B000073A03198028013A03198628033A0319DD
:1000C0008C28013A031992280F3A03199828013A0B
:1000D00003199E28093A0319A428AA288316860121
:1000E0000630831286000800831686015B30831277
:1000F00086000800831686014F30831286000800B0
:1001000083168601663083128600080083168601F6
:100110006D30831286000800831686017D308312BD
:1001200086000800831686010730831286000800C7
:10013000831686017F3083128600080083168601AD
:100140006F30831286000800831686013F308312C9
:10015000860008004C080A3A0319B228F53A031938
:10016000B8280800831686017330831286000800C1
:100170008316860183128601080083120313D701B8
:10018000083057020318E62801304605EB00EC0161
:10019000EB08031D6C14C4116C08031DC415F73063
:1001A0008316050585008312C41DDD28F73005057B
:1001B000EB0008306B048500E028F730050585006A
:1001C0003720C6080310C60CD70AC028D80108304B
:1001D00058020318080001304705EB00EC01EB085A
:1001E000031D6C14C4116C08031DC415F73083166D
:1001F000050585008312C41D0429F7300505EB00B1
:1002000008306B0485000729F73005058500372085
:10021000C7080310C70CD80AE728F101EF01F00165
:10022000F01908000310EF0DEB0DF10D6C087102D1
:10023000031C1C29F1006F14F00A1029EF01F101D1
:10024000F001F01908000310F10DED0DEF0D6E082F
:100250006F02031C2D29EF007114F00A2129831667
:1002600003138601831286011030C600C701BD202A
:100270000130831605048500013083120505D9007D
:10028000DA0159030319DA0AC4135A08031DC41703
:100290000230831605048500023083120505D9005B
:1002A000DA01023059020319DA0A4D115A08031D06
:1002B0004D15C41B5D29441408004410CD104D1980
:1002C00064290130C8000800C801441108008316E1
:1002D00003138601831286010830C600C701BD20C2
:1002E0000130831605048500013083120505D9000D
:1002F000DA0159030319DA0AC4135A08031DC41793
:100300000230831605048500023083120505D900EA
:10031000DA01023059020319DA0A4D115A08031D95
:100320004D15C41B9529441708004413C4124D19D8
:100330009B29C4140800C410080083160313860107
:10034000831286010430C600C701BD200130831628
:1003500005048500013083120505D900DA0159032F
:100360000319DA0AC4135A08031DC417023083168E
:1003700005048500023083120505D900DA01023038
:1003800059020319DA0A4D115A08031D4D15C41BF1
:10039000CB29CD150800CD1144124D19D1294D1787
:1003A00008004D130800FF3083120313CC004C20CB
:1003B000BD205308CC004C20FA30EB001020080080
:1003C00083120313DA0148030319DA0AD901441D21
:1003D000D90A59085A0503190800540AD4004415CB
:1003E0005408083A031D08000130D40008008312A5
:1003F00003134D1F072A7F308316060586007F30C2
:1004000083120605E1008030610486000F2A7F30E8
:100410008316060586007F30831206058600DA0102
:100420004418DA0AD901CD1CD90A59085A0503190A
:10043000352AC41C1E2A4F03CF00202A4F0ACF00A2
:10044000E201C8304F020318E20AE101FF304F0217
:10045000031CE10A610862050319312AC730CF0085
:10046000342A4F0A0319CF01CD14DC01CD19DC0A5F
:10047000DB01441EDB0A5B085C0503195B2AC41C14
:10048000442A4E03CE00462A4E0ACE00E201C8306E
:100490004E020318E20AE101FF304E02031CE10A9A
:1004A000610862050319572AC730CE005A2A4E0A3E
:1004B0000319CE014416DE0148030319DE0ADD01EB
:1004C000441DDD0A5D085E0503196E2AC41C6B2AF3
:1004D0000E30D1006D2A1830D1004415E001441BC4
:1004E000E00ADF01C41EDF0A5F0860050319080087
:1004F000C41C7C2ACD16832A4D1E802A4D12812AC7
:100500004D16B901BA01C416080083120313460838
:10051000D2004708D5005008013A0319962A033A39
:100520000319982A013A03199A2A9B2A9D219B2A8A
:1005300067219B2A2F21500AD00004305002031C4F
:10054000A32A0130D0005208C6005508C700080091
:1005500083120313450AC500DA014508143C031C45
:10056000DA0AD90154030319D90A59085A0503199B
:10057000C42A4508283C031CC501C6018030C700B9
:10058000FF30D300D321CF2AC6018030C7004B08EB
:10059000ED000A30EE001E217108D300D321DC01EA
:1005A0004508143C031CDC0ADB0102305402031929
:1005B000DB0A5B085C050319E82A4508283C031C94
:1005C000C501C6014030C700FF30D300D321F32A54
:1005D000C6014030C7004B08EB000A30EC000D218B
:1005E0007108D300D321DE014508143C031CDE0A48
:1005F000DD01033054020319DD0A5D085E050319AD
:100600000C2B4508283C031CC501C6012030C7003F
:10061000FF30D300D321172BC6012030C7004A0872
:10062000ED000A30EE001E217108D300D321E00155
:100630004508143C031CE00ADF010430540203198E
:10064000DF0A5F0860050319302B4508283C031CAE
:10065000C501C6011030C700FF30D300D3213B2BAA
:10066000C6011030C7004A08EB000A30EC000D212B
:100670007108D300D321E2014508143C031CE20AAF
:10068000E101053054020319E10A6108620503190A
:10069000542B4508283C031CC5011030C600C70177
:1006A000FF30D300D3215F2B1030C600C7015108A3
:1006B000ED000A30EE001E217108D300D321E401C1
:1006C0004508143C031CE40AE301063054020319F4
:1006D000E30A630864050319782B4508283C031CCA
:1006E000C5010830C600C701FF30D300D321832BDA
:1006F0000830C600C7015108EB000A30EC000D219C
:100700007108D300D321E6014508143C031CE60A16
:10071000E501073054020319E50A65086605031967
:100720009C2B4508283C031CC5010430C600C701AA
:10073000FF30D300D321A22B0430C600C7014908E3
:10074000D300D321C6010830C7004F08ED00643044
:10075000EE001E217108D300D308031DB12BFF301A
:10076000D300D321C6010430C7004F08EB0064302A
:10077000EC000D217108ED000A30EE001E21710819
:10078000D300E801E80AD308031D6810E7016430CC
:100790004F02031CE70A670868050319D12BFF30D5
:1007A000D300D321C6010230C7004F08EB000A3046
:1007B000EC000D217108D300D321C6010130C70020
:1007C0004E08ED006430EE001E217108D300D308FE
:1007D000031DEC2BFF30D300D3218030C600C701AE
:1007E0004E08EB006430EC000D217108ED000A307A
:1007F000EE001E217108D300EA01EA0AD308031DA6
:100800006A10E90164304E02031CE90A69086A05AE
:1008100003190C2CFF30D300D3214030C600C70190
:100820004E08EB000A30EC000D217108D300D321F3
:100830000800103083120313C600C7015108ED00F1
:100840000A30EE001E217108D300D308031D2A2CA4
:10085000FF30D300D3210830C600C7015108EB0098
:100860000A30EC000D217108D300D321C60180307D
:10087000C7004B08ED000A30EE001E217108D300BE
:10088000D308031D452CFF30D300D321C6014030CF
:10089000C7004B08EB000A30EC000D217108D300B3
:1008A000D321C6012030C7004A08ED000A30EE000F
:1008B0001E217108D300D321C6011030C7004A0899
:1008C000EB000A30EC000D217108D300D321C601E2
:1008D0000830C7004F08ED006430EE001E2171089B
:1008E000D300D308031D762CFF30D300D321C601DB
:1008F0000430C7004F08EB006430EC000D21710894
:10090000ED000A30EE001E217108D300DA01DA0A88
:10091000D308031D5A10D90164304F02031CD90AB1
:1009200059085A050319962CFF30D300D321C6016C
:100930000230C7004F08EB000A30EC000D217108AF
:10094000D300D321C6010130C7004E08ED0064304A
:10095000EE001E217108D300D308031DB12CFF3017
:10096000D300D3218030C600C7014E08EB006430AD
:10097000EC000D217108ED000A30EE001E21710817
:10098000D300DC01DC0AD308031D5C10DB016430FA
:100990004E02031CDB0A5B085C050319D12CFF30F7
:1009A000D300D3214030C600C7014E08EB000A3007
:1009B000EC000D217108D300D3210430C600C7011B
:1009C0004908D300D32108000730831203139F0086
:1009D000C030831681000B17831212109214121567
:1009E00007301205D9007830590492000F30831671
:1009F00092008B178C140A308312CB00CA01183076
:100A0000D100CF01CE010130C900D0014D16D60171
:100A1000643056020318102D19248522D60A082D99
:100A20004D13CD114410C410C80144134D120130B0
:100A3000D400CD1E1F2DA8228522E021192D1924B6
:100A40008522F721192DD53083120313A000C4305D
:100A5000A100BB30A200DC30A300A401A501A601C7
:100A6000A701A801A901AA01AB01AC01AD01AE012A
:100A7000AF01BE01BF01B701B801C001C101C20190
:100A8000C301B001B101B201B301BC01BD01BB01A1
:100A90004414C414C501FF30C6004411C411FF3012
:100AA000C7000130C8000130C90044120A30CB0031
:100AB000FF30CC00C4124417C4174D10CD104D1593
:100AC000CE01CD15CF01D0011830D100B901BA0146
:100AD0004D12CD12D201FF30D300D4014D17D501F4
:100AE0008A110A12E42C831203138C1C7C2D8316AA
:100AF0008C1C7C2D15208C108312360E8400350E34
:0C0B00008A00340E8300FF0E7F0E0900F7
:02400E000A3F67
:00000001FF
