:020000008F2F40
:08000800FF00030E8312031335
:10001000B4000A0EB500040EB6008A110A12E62FCB
:1000200000000000FA0B1028080083120313CF1FF2
:10003000DC28C615B908BA08B90A0319BA0AFB3090
:10004000831605058500FB30831205058316A20083
:1000500004302204831285000E303A02031D322838
:100060004C303902031C58288316A30183124D0813
:10007000003C03183D288316A30A8316A2018312AD
:100080004C08003C031846288316A20A831622084F
:10009000230403195828FB3005058500FB30831223
:1000A000050585001830D500CF13B901BA01C61176
:1000B0008316A101173083123A02D4300319390292
:1000C000031C64288316A10A8316A001A00A8312C8
:1000D000CC0803196D2883162010831620082105EB
:1000E0000319DC28A401A40A8312CD0803197A2875
:1000F000831624108316A201A20A8312CC080319C6
:1001000083288316221083162208A405A301A30ABC
:100110008312D10803198E2883162310831623080F
:1001200024050319DC28FB3005058500FB3083120C
:10013000050585008316A601043083124B02031DBA
:10014000A3288316A60A8316A501053083124B0245
:10015000031DAC288316A50A831625082604031957
:10016000CE28831250085306031DC1280530CD0048
:10017000CC011830D5000530CB00CF13B901BA013E
:10018000CC28CF16530850020318C8285611CC2883
:1001900050085302031C56155610DA280A308312F1
:1001A000CD00CC011830D5004B0ACB00CF13B901DC
:1001B000BA015610CF13C6118312561C0800BB0893
:1001C000BC08BB0A0319BC0A8316A101A10A831249
:1001D000CD080319ED28831621108316A001831280
:1001E0004C083B3C031CF6288316A00A8316200803
:1001F000210503191C29003083123C02031D02292A
:100200007A303B02031C08005103D100510A031D40
:1002100019290930D1004C03CC005503D5004C0AF4
:10022000031D16294D03CD003B30CC00D508031922
:100230005610BB01BC010800043083123C02031DB0
:100240002329C4303B02031C08004C03CC00550397
:10025000D5004C0A031D30294D03CD003B30CC00A6
:10026000D50803195610BB01BC010800EF308316F6
:10027000031305058500EF3083120505FA001030E1
:100280007A048500EF30831605058500EF30831270
:10029000050585000800831203134E08013A03196F
:1002A0006D29033A03197329013A03197929073A89
:1002B00003197F29013A03198529033A03198B2968
:1002C000013A031991290F3A03199729013A0319A1
:1002D0009D29093A0319A329A92983168601063005
:1002E000831286000800831686015B308312860025
:1002F0000800831686014F3083128600080083169B
:1003000086016630831286000800831686016D30F0
:10031000831286000800831686017D3083128600D2
:1003200008008316860107308312860008008316B2
:1003300086017F30831286000800831686016F30A5
:10034000831286000800831686013F3083128600E0
:1003500008004E080A3A0319B429F53A0319BA29D4
:10036000F43A0319BF2908008316860173308312FB
:100370008600080083168601831286010800831612
:1003800086015C3083128600080083120313DC01AF
:1003900008305C020318EE2901304805FA00FB0121
:1003A000FA08031D7B1446127B08031D4616F7301E
:1003B0008316050585008312461EE529F7300505DD
:1003C000FA0008307A048500E829F7300505850031
:1003D0003621C8080310C80CDC0AC829DD01083022
:1003E0005D020318080001304905FA00FB01FA0814
:1003F000031D7B1446127B08031D4616F730831637
:10040000050585008312461E0C2AF7300505FA0003
:1004100008307A0485000F2AF7300505850036215B
:10042000C9080310C90CDD0AEF29FE01FC01FD011A
:10043000FD1908000310FC0DF80DFE0D79087E0271
:10044000031C242AFE007C14FD0A182AFC01FE016C
:10045000FD01FD1908000310FE0DFA0DFC0D7B08CF
:100460007C02031C352AFC007E14FD0A292A83160F
:1004700003138601831286011030C800C901C5210B
:100480000130831605048500013083120505DE0066
:10049000DF015E030319DF0ACF105F08031DCF14CD
:1004A0000230831605048500023083120505DE0044
:1004B000DF0102305E020319DF0A4F125F08031DDD
:1004C0004F16CF18652A461408004610CF114F1A50
:1004D0006C2A0130CA000800CA01461108008316C0
:1004E00003138601831286010830C800C901C521A3
:1004F0000130831605048500013083120505DE00F6
:10050000DF015E030319DF0ACF105F08031DCF145C
:100510000230831605048500023083120505DE00D3
:10052000DF0102305E020319DF0A4F125F08031D6C
:100530004F16CF189D2A4F1408004F10C6134F1A9C
:10054000A32AC6140800C6100800831603138601E8
:10055000831286010430C800C901C5210130831609
:1005600005048500013083120505DE00DF015E030E
:100570000319DF0ACF105F08031DCF140230831662
:1005800005048500023083120505DE00DF0102301C
:100590005E020319DF0A4F125F08031D4F16CF18C2
:1005A000D32A4F1708004F13C6124F1AD92AD6154F
:1005B0000800D6110800FF3083120313CE004B2130
:1005C000C5215808CE004B21FA30FA00102008004F
:1005D00083120313DF014A030319DF0ADE01461DFC
:1005E000DE0A5E085F050319FE2A590AD90046157E
:1005F0005908083A031DFE2A0130D900E1014F18BD
:10060000E10AE001C61FE00A60086105031908005D
:10061000C61C1E2BD6100130D900E301E30ACD0819
:10062000031D6310E201E20ACC08031D6210620898
:1006300063050319A32B0130CC00A32B5908013A01
:100640000319352B033A0319402B013A0319572B91
:10065000073A0319622B013A0319792B033A03195C
:10066000842B013A03199B2BA32B0A304D07CD0095
:1006700064304D02031CA32B64304D02CD00A32B2C
:100680004D08F8000A30F90015227E08093A031DCA
:10069000542B4D08F8000A30F90015227E08D200CC
:1006A00052084D02CD00A32B4D0ACD00A32B0A30DA
:1006B0004C07CC003C304C02031CA32B3C304C02BA
:1006C000CC00A32B4C08F8000A30F90015227E0854
:1006D000093A031D762B4C08F8000A30F900152260
:1006E0007E08D20052084C02CC00A32B4C0ACC004E
:1006F000A32B0A305507D50064305502031CA32BE9
:1007000064305502D500A32B5508F8000A30F900D3
:1007100015227E08093A031D982B5508F8000A3067
:10072000F90015227E08D20052085502D500A32BED
:10073000550AD500A32B4B0ACB004B08063A031DE4
:10074000A32B0130CB00C617080083120313DF016F
:10075000D619DF0ADE01561CDE0A5E085F050319A2
:10076000C72BFB30831605058500FB30831205057A
:10077000E200043062048500E101C618E10AE001EC
:10078000CF1AE00A60086105031D4617CF2BFB3026
:10079000831605058500FB30831205058500CF1AF9
:1007A0000800E1014618E10AE001CF1DE00A6008F7
:1007B00061050319F72BC61CE02B5303D300E22B72
:1007C000530AD300E901C83053020318E90AE801CB
:1007D000FF305302031CE80A680869050319F32B6C
:1007E000C730D300F62B530A0319D301CF15E30109
:1007F0004F1BE30AE201C61EE20A62086305031901
:100800001D2CC61C062C5003D000082C500AD0000A
:10081000E901C83050020318E90AE801FF3050022C
:10082000031CE80A680869050319192CC730D000B1
:100830001C2C500A0319D001C616E5014A030319FE
:10084000E50AE401461DE40A640865050319562C0F
:10085000C61C3E2CE901E90ACD08031D6910E80118
:100860000E304C02031CE80A6808690503193B2C8A
:100870004C08D500512C0E30D500512CE901E90A65
:10088000CD08031D6910E80118304C02031CE80A6A
:100890006808690503194F2C4C08D500512C1830F5
:1008A000D5004615BB01BC01C611CF13E7014F1897
:1008B000E70AE601C61FE60A66086705031908008D
:1008C000C61C682C56186F2CD6140130D9006F2C1A
:1008D000561C6C2C56106D2C5614BB01BC01C6174F
:1008E00008000A3083120313CD00CC011830D50064
:1008F000D301D0010130CB00D4015611CF124613E1
:100900005610CF13D610C6114F10080083120313D0
:10091000E001E00ACD08031D6010DE01DE0ACC080C
:10092000031D5E105E08E005DF0109305102031966
:10093000DF0A5F086005031DD101E201E20ACD086C
:10094000031D6210E10155084C02031CE10A610815
:1009500062050319AD2C4C08D500E401E40AD50862
:10096000031D6410E301C61DE30A6308640503194F
:100970000800CF17B901BA01080083120313480811
:10098000D7004908DA005408013A0319CE2C033A7B
:100990000319D02C013A0319D22CD32CA522D32C25
:1009A0006F22D32C3722540AD40004305402031C83
:1009B000DB2C0130D4005708C8005A08C9000800D1
:1009C00083120313CF1EE62C0830D900470AC70054
:1009D000DF014708143C031CDF0ADE015903031939
:1009E000DE0A5E085F050319002D4708283C031C3A
:1009F000C701C8018030C900FF30D800DB22302D8C
:100A0000F501D61CF50AF401F40ACD08031D741093
:100A1000740875050319172DC8018030C9004C08EA
:100A2000FA000A30FB0026227E08D800212DC801DA
:100A30008030C9004D08FA000A30FB0026227E08EB
:100A4000D800F701F70AD808031D7710F601D61C65
:100A5000F60A7608770503192F2DFF30D800DB2220
:100A6000E1014708143C031CE10AE001023059028D
:100A70000319E00A600861050319492D4708283C5D
:100A8000031CC701C8014030C900FF30D800DB2279
:100A90006B2DF501D61CF50AF401F40ACD08031DEF
:100AA0007410740875050319602DC8014030C90021
:100AB0004C08F8000A30F90015227E08D8006A2D8B
:100AC000C8014030C9004D08F8000A30F90015226D
:100AD0007E08D800DB22E3014708143C031CE30A2C
:100AE000E201033059020319E20A6208630503199F
:100AF000842D4708283C031CC701C8012030C900C9
:100B0000FF30D800DB22A12DF501D61CF50AF40137
:100B1000F40ACD08031D7410740875050319962D89
:100B2000C8012030C900FF30D800A02DC8012030F6
:100B3000C9004C08FA000A30FB0026227E08D800C3
:100B4000DB22E5014708143C031CE50AE4010430FC
:100B500059020319E40A640865050319BA2D470808
:100B6000283C031CC701C8011030C900FF30D80061
:100B7000DB22D72DF501D61CF50AF401F40ACD08C5
:100B8000031D7410740875050319CC2DC8011030AD
:100B9000C9005108D800D62DC8011030C9004C0832
:100BA000F8000A30F90015227E08D800DB22E701A0
:100BB0004708143C031CE70AE601053059020319F3
:100BC000E60A660867050319F02D4708283C031C50
:100BD000C7011030C800C901FF30D800DB22252E24
:100BE0001030C800C9015508FA000A30FB0026225F
:100BF0007E08D800F501F50AD808031D7510F40128
:100C0000D61CF40A740875050319082EFF30D800A5
:100C1000F901D61CF90AF601F60ACD08031D761073
:100C20007608F905F70118304C02031CF70A77081B
:100C3000F905F8014C0855020318F80A78087905F7
:100C40000319242EFF30D800DB22E9014708143CA9
:100C5000031CE90AE801063059020319E80A68088A
:100C6000690503193E2E4708283C031CC7010830BC
:100C7000C800C901FF30D800DB22652E0830C8004B
:100C8000C9015508F8000A30F90015227E08D8007D
:100C9000F701D61CF70AF401F40ACD08031D7410FD
:100CA0007408F705F50118304C02031CF50A7508A5
:100CB000F705F6014C0855020318F60A7608770581
:100CC0000319642EFF30D800DB22EB014708143CE7
:100CD000031CEB0AEA01073059020319EA0A6A0801
:100CE0006B0503197E2E4708283C031CC7010430FE
:100CF000C800C901FF30D800DB228A2E0430C800AA
:100D0000C9014B08D8004B08053A031D892E0B304A
:100D1000D800DB22EF01CF1AEF0AEC01561DEC0AD6
:100D20006C08EF05ED014708143C031CED0A6D0843
:100D3000EF05EE01083059020319EE0A6E086F053F
:100D40000319B92E4708283C031CC701C801083005
:100D5000C900FF30D800DB22C8010430C900FF30D1
:100D6000D800DB22C8010230C900FF30D800DB22E6
:100D7000F42EC8010830C9005308FA006430FB00A3
:100D800026227E08D800D808031DC82EFF30D800C0
:100D9000DB22C8010430C9005308F8006430F900B0
:100DA00015227E08FA000A30FB0026227E08D800B1
:100DB000F501F50AD808031D7510F40164305302DB
:100DC000031CF40A740875050319E82EFF30D800D7
:100DD000DB22C8010230C9005308F8000A30F900CC
:100DE00015227E08D800DB22F301CF1AF30AF001A6
:100DF0005619F00A7008F305F1014708143C031C6A
:100E0000F10A7108F305F201083059020319F20AD8
:100E1000720873050319232F4708283C031CC701D8
:100E2000C8010130C900FF30D800DB228030C80083
:100E3000C901FF30D800DB224030C800C901FF30B3
:100E4000D800DB220800C8010130C9005008FA00B0
:100E50006430FB0026227E08D800D808031D322FFC
:100E6000FF30D800DB228030C800C9015008F800EC
:100E70006430F90015227E08FA000A30FB002622B1
:100E80007E08D800F501F50AD808031D7510F40195
:100E900064305002031CF40A740875050319522FBC
:100EA000FF30D800DB224030C800C9015008F800EC
:100EB0000A30F90015227E08D800DB22080007302E
:100EC000831203139F00C030831681000B17831217
:100ED00012109214121507301205DE0078305E04ED
:100EE00092000F30831692008B178C147124DB0153
:100EF00064305B020318802FE024BD24DB0A782FC6
:100F0000D61C862FE024BD24E8228C2F0830D9007F
:100F1000E024BD24A5238624461B7124802FD530D0
:100F200083120313A000C430A100BB30A200DC3048
:100F3000A300A401A501A601A701A801A901AA0176
:100F4000AB01AC01AD01AE01AF01C001C101B70100
:100F5000B801C201C301C401C501B001B101B201B0
:100F6000B301BE01BF01BD014614C614C701FF3065
:100F7000C8004611C6114612FF30C9000130CA0030
:100F80000130CB00C6120A30CD004613FF30CE0030
:100F9000C6134F14CF144F11CF114F16D001CF12DB
:100FA000D101D2014F17D301D401CF131830D5008E
:100FB000BB01BC015610D610D701FF30D800D901B3
:100FC0005611D615DA018A110A125F2F8312031304
:100FD0008C1CEF2F83168C1CEF2F15208C10831286
:100FE000360E8400350E8A00340E8300FF0E7F0E0D
:020FF0000900F6
:02400E000A1F87
:00000001FF
