:020000007F2B54
:08000800FF00030E8312031335
:10001000B4000A0EB500040EB6008A110A12CC2BE9
:1000200000000000DA0B10280800831203134C1E96
:100030000800B908BA08B90A0319BA0A04303A0222
:10004000031D2428C4303902031C08004903C900D9
:100050005003D000490A031D31284A03CA003B302F
:10006000C900D00803194C12B901BA010800EF30D9
:100070008316031305058500EF3083120505DA00AA
:1000800010305A048500EF30831605058500EF30E7
:100090008312050585000800831203134B08013AFB
:1000A00003196E28033A03197428013A03197A28B0
:1000B000073A03198028013A03198628033A0319DD
:1000C0008C28013A031992280F3A03199828013A0B
:1000D00003199E28093A0319A428AA288316860121
:1000E0000630831286000800831686015B30831277
:1000F00086000800831686014F30831286000800B0
:1001000083168601663083128600080083168601F6
:100110006D30831286000800831686017D308312BD
:1001200086000800831686010730831286000800C7
:10013000831686017F3083128600080083168601AD
:100140006F30831286000800831686013F308312C9
:10015000860008004B080A3A0319B228F53A031939
:10016000B8280800831686017330831286000800C1
:100170008316860183128601080083120313D401BB
:10018000083054020318E62801304505DA00DB0187
:10019000DA08031D5B14C4115B08031DC415F73096
:1001A0008316050585008312C41DDD28F73005057B
:1001B000DA0008305A048500E028F730050585008C
:1001C0003720C5080310C50CD40AC028D501083053
:1001D00055020318080001304705DA00DB01DA0890
:1001E000031D5B14C4115B08031DC415F73083168F
:1001F000050585008312C41D0429F7300505DA00C2
:1002000008305A0485000729F73005058500372096
:10021000C7080310C70CD50AE728E001DE01DF019B
:10022000DF1908000310DE0DDA0DE00D5B08600237
:10023000031C1C29E0005E14DF0A1029DE01E00126
:10024000DF01DF1908000310E00DDC0DDE0D5D0895
:100250005E02031C2D29DE006014DF0A21298316AB
:1002600003138601831286011030C500C701BD202B
:100270000130831605048500013083120505D60080
:10028000D70156030319D70A4C105708031D4C1405
:100290000230831605048500023083120505D6005E
:1002A000D701023056020319D70A4C115708031D13
:1002B0004C154C185D29C4140800C41044134C1983
:1002C00064290130C6000800C601441108008316E5
:1002D00003138601831286010830C500C701BD20C3
:1002E0000130831605048500013083120505D60010
:1002F000D70156030319D70A4C105708031D4C1495
:100300000230831605048500023083120505D600ED
:10031000D701023056020319D70A4C115708031DA2
:100320004C154C189529CC140800CC10C4124C194B
:100330009B29441408004410080083160313860107
:10034000831286010430C500C701BD200130831629
:1003500005048500013083120505D600D701560338
:100360000319D70A4C105708031D4C14023083168A
:1003700005048500023083120505D600D70102303E
:1003800056020319D70A4C115708031D4C154C1877
:10039000CB29CC150800CC1144124C19D129CC160C
:1003A0000800CC120800FF3083120313CB004C204E
:1003B000BD205108CB004C20FA30DA001020080094
:1003C00083120313CC1EF0297F30831606058600A6
:1003D0007F3083120605DE0080305E048600F82937
:1003E0007F308316060586007F308312060586005F
:1003F000D701C418D70AD601441FD60A5608570594
:1004000003191E2A441C072A4F03CF00092A4F0A4A
:10041000CF00DF01C8304F020318DF0ADE01FF30D2
:100420004F02031CDE0A5E085F0503191A2AC73053
:10043000CF001D2A4F0A0319CF014417D901CC1947
:10044000D90AD801441ED80A580859050319442A64
:10045000441C2D2A4D03CD002F2A4D0ACD00DF016B
:10046000C8304D020318DF0ADE01FF304D02031CC5
:10047000DE0A5E085F050319402AC730CD00432A13
:100480004D0A0319CD014416DB0146030319DB0AAB
:10049000DA01441DDA0A5A085B050319572A441C7D
:1004A000542A0E30D000562A1830D0004415DD01F1
:1004B000CC18DD0ADC01C41EDC0A5C085D050319EA
:1004C00008004C1E652A4C12662A4C16B901BA0166
:1004D000C4160800831203134508D2004708D3004E
:1004E0004E08013A03197B2A033A03197D2A013A7F
:1004F00003197F2A802A9D21802A6721802A2F21A3
:100500004E0ACE0004304E02031C882A0130CE0071
:100510005208C5005308C7000800103083120313A7
:10052000C500C7015008DC000A30DD001E2160084C
:10053000D100D108031D9E2AFF30D100D3210830FD
:10054000C500C7015008DA000A30DB000D21600841
:10055000D100D321C5018030C7004A08DC000A3031
:10056000DD001E216008D100D108031DB92AFF302B
:10057000D100D321C5014030C7004A08DA000A3053
:10058000DB000D216008D100D321C5012030C70058
:100590004908DC000A30DD001E216008D100D321AB
:1005A000C5011030C7004908DA000A30DB000D2110
:1005B0006008D100D321C5010830C7004F08DC0016
:1005C0006430DD001E216008D100D108031DEA2A35
:1005D000FF30D100D321C5010430C7004F08DA0035
:1005E0006430DB000D216008DC000A30DD001E21D4
:1005F0006008D100D701D70AD108031D5710D601D2
:1006000064304F02031CD60A5608570503190A2BFB
:10061000FF30D100D321C5010230C7004F08DA00F6
:100620000A30DB000D216008D100D321C501013063
:10063000C7004D08DC006430DD001E216008D100D9
:10064000D108031D252BFF30D100D3218030C500F8
:10065000C7014D08DA006430DB000D216008DC00C2
:100660000A30DD001E216008D100D901D90AD10865
:10067000031D5910D80164304D02031CD80A5808D4
:1006800059050319452BFF30D100D3214030C50057
:10069000C7014D08DA000A30DB000D216008D100E7
:1006A000D3210430C500C7014808D100D321080078
:1006B0000730831203139F00C030831681000B178D
:1006C000831212109214121507301205D6007830DA
:1006D000560492000F30831692008B178C140A3048
:1006E0008312CA00C9011830D000CF01CD010130FA
:1006F000C800CE014C168D226A22E0217B2BD5301A
:1007000083120313A000C430A100BB30A200DC3070
:10071000A300A401A501A601A701A801A901AA019E
:10072000AB01AC01AD01AE01AF01BE01BF01B7012C
:10073000B801C001C101C201C301B001B101B201E0
:10074000B301BC01BD01BB014414C4144411FF300A
:10075000C5000130C600FF30C700C411441201308B
:10076000C8000A30CA00C412FF30CB004413C413BF
:100770004C14CC14CD014C15CE01CF01CC15B901D0
:10078000BA011830D0004C12FF30D100D201D30191
:10079000CC168A110A12582B831203138C1CD52BEA
:1007A00083168C1CD52B15208C108312360E8400DA
:0E07B000350E8A00340E8300FF0E7F0E090006
:02400E000A3F67
:00000001FF
