:020000008F2F40
:08000800FF00030E8312031335
:10001000B4000A0EB500040EB6008A110A12E62FCB
:1000200000000000FA0B1028080083120313CF1EF3
:10003000DC284716B908BA08B90A0319BA0AFB300E
:10004000831605058500FB30831205058316A20083
:1000500004302204831285000E303A02031D322838
:100060004C303902031C58288316A30183124D0813
:10007000003C03183D288316A30A8316A2018312AD
:100080004C08003C031846288316A20A831622084F
:10009000230403195828FB3005058500FB30831223
:1000A000050585001830D500CF12B901BA014712F5
:1000B0008316A101173083123A02D4300319390292
:1000C000031C64288316A10A8316A001A00A8312C8
:1000D000CC0803196D2883162010831620082105EB
:1000E0000319DC28A401A40A8312CD0803197A2875
:1000F000831624108316A201A20A8312CC080319C6
:1001000083288316221083162208A405A301A30ABC
:100110008312D40803198E2883162310831623080C
:1001200024050319DC28FB3005058500FB3083120C
:10013000050585008316A601043083124B02031DBA
:10014000A3288316A60A8316A501053083124B0245
:10015000031DAC288316A50A831625082604031957
:10016000CE28831250085206031DC1280530CD0049
:10017000CC011830D5000530CB00CF12B901BA013F
:10018000CC28CF17520850020318C828D611CC2803
:1001900050085202031CD6155610DA280A30831272
:1001A000CD00CC011830D5004B0ACB00CF12B901DD
:1001B000BA015610CF1247128312561C0800BB0812
:1001C000BC08BB0A0319BC0A8316A101A10A831249
:1001D000CD080319ED28831621108316A001831280
:1001E0004C083B3C031CF6288316A00A8316200803
:1001F000210503191C29003083123C02031D02292A
:100200007A303B02031C08005403D400540A031D37
:1002100019290930D4004C03CC005503D5004C0AF1
:10022000031D16294D03CD003B30CC00D508031922
:100230005610BB01BC010800043083123C02031DB0
:100240002329C4303B02031C08004C03CC00550397
:10025000D5004C0A031D30294D03CD003B30CC00A6
:10026000D50803195610BB01BC010800EF308316F6
:10027000031305058500EF3083120505FA001030E1
:100280007A048500EF30831605058500EF30831270
:10029000050585000800831203134E08013A03196F
:1002A0006D29033A03197329013A03197929073A89
:1002B00003197F29013A03198529033A03198B2968
:1002C000013A031991290F3A03199729013A0319A1
:1002D0009D29093A0319A329A92983168601063005
:1002E000831286000800831686015B308312860025
:1002F0000800831686014F3083128600080083169B
:1003000086016630831286000800831686016D30F0
:10031000831286000800831686017D3083128600D2
:1003200008008316860107308312860008008316B2
:1003300086017F30831286000800831686016F30A5
:10034000831286000800831686013F3083128600E0
:1003500008004E080A3A0319B429F53A0319BA29D4
:10036000F43A0319BF2908008316860173308312FB
:100370008600080083168601831286010800831612
:1003800086015C3083128600080083120313DC01AF
:1003900008305C020318EE2901304805FA00FB0121
:1003A000FA08031D7B14C7117B08031DC715F7301E
:1003B0008316050585008312C71DE529F73005055D
:1003C000FA0008307A048500E829F7300505850031
:1003D0003621C8080310C80CDC0AC829DD01083022
:1003E0005D020318080001304A05FA00FB01FA0813
:1003F000031D7B14C7117B08031DC715F730831637
:10040000050585008312C71D0C2AF7300505FA0083
:1004100008307A0485000F2AF7300505850036215B
:10042000CA080310CA0CDD0AEF29FE01FC01FD0118
:10043000FD1908000310FC0DF80DFE0D79087E0271
:10044000031C242AFE007C14FD0A182AFC01FE016C
:10045000FD01FD1908000310FE0DFA0DFC0D7B08CF
:100460007C02031C352AFC007E14FD0A292A83160F
:1004700003138601831286011030C800CA01C5210A
:100480000130831605048500013083120505DE0066
:10049000DF015E030319DF0A4F115F08031D4F15CB
:1004A0000230831605048500023083120505DE0044
:1004B000DF0102305E020319DF0A4F125F08031DDD
:1004C0004F164F19652AC7140800C7104F104F1A4E
:1004D0006C2A0130C9000800C901471108008316C1
:1004E00003138601831286010830C800CA01C521A2
:1004F0000130831605048500013083120505DE00F6
:10050000DF015E030319DF0A4F115F08031D4F155A
:100510000230831605048500023083120505DE00D3
:10052000DF0102305E020319DF0A4F125F08031D6C
:100530004F164F199D2ACF150800CF1147134F1A98
:10054000A32A4714080047100800831603138601E6
:10055000831286010430C800CA01C5210130831608
:1005600005048500013083120505DE00DF015E030E
:100570000319DF0A4F115F08031D4F150230831660
:1005800005048500023083120505DE00DF0102301C
:100590005E020319DF0A4F125F08031D4F164F1941
:1005A000D32A4F1708004F13C7124F1AD92A5615CE
:1005B000080056110800FF3083120313CE004B21B0
:1005C000C5215808CE004B21FA30FA00102008004F
:1005D00083120313DF0149030319DF0ADE01471DFC
:1005E000DE0A5E085F050319FE2A570AD700471581
:1005F0005708083A031DFE2A0130D700E101CF1940
:10060000E10AE001471FE00A6008610503190800DC
:10061000471C1E2BD6100130D700E301E30ACD089A
:10062000031D6310E201E20ACC08031D6210620898
:1006300063050319A32B0130CC00A32B5708013A03
:100640000319352B033A0319402B013A0319572B91
:10065000073A0319622B013A0319792B033A03195C
:10066000842B013A03199B2BA32B0A304D07CD0095
:1006700064304D02031CA32B64304D02CD00A32B2C
:100680004D08F8000A30F90015227E08093A031DCA
:10069000542B4D08F8000A30F90015227E08D300CB
:1006A00053084D02CD00A32B4D0ACD00A32B0A30D9
:1006B0004C07CC003C304C02031CA32B3C304C02BA
:1006C000CC00A32B4C08F8000A30F90015227E0854
:1006D000093A031D762B4C08F8000A30F900152260
:1006E0007E08D30053084C02CC00A32B4C0ACC004C
:1006F000A32B0A305507D50064305502031CA32BE9
:1007000064305502D500A32B5508F8000A30F900D3
:1007100015227E08093A031D982B5508F8000A3067
:10072000F90015227E08D30053085502D500A32BEB
:10073000550AD500A32B4B0ACB004B08063A031DE4
:10074000A32B0130CB004717080083120313DF01EE
:100750005619DF0ADE01561CDE0A5E085F05031922
:10076000C72BFB30831605058500FB30831205057A
:10077000E200043062048500E1014718E10AE0016B
:10078000CF1BE00A60086105031DC717CF2BFB30A4
:10079000831605058500FB30831205058500CF1BF8
:1007A0000800E101C718E10AE0014F1CE00A6008F7
:1007B00061050319F72B471CE02B5203D200E22BF3
:1007C000520AD200E901C83052020318E90AE801CE
:1007D000FF305202031CE80A680869050319F32B6D
:1007E000C730D200F62B520A0319D2014F14E3018D
:1007F0004F1BE30AE201C71EE20A62086305031900
:100800001D2C471C062C5003D000082C500AD00089
:10081000E901C83050020318E90AE801FF3050022C
:10082000031CE80A680869050319192CC730D000B1
:100830001C2C500A0319D001C716E50149030319FE
:10084000E50AE401471DE40A640865050319562C0E
:10085000471C3E2CE901E90ACD08031D6910E80197
:100860000E304C02031CE80A6808690503193B2C8A
:100870004C08D500512C0E30D500512CE901E90A65
:10088000CD08031D6910E80118304C02031CE80A6A
:100890006808690503194F2C4C08D500512C1830F5
:1008A000D5004715BB01BC014712CF12E701CF1994
:1008B000E70AE601471FE60A66086705031908000C
:1008C000471C682C56186F2CD6140130D7006F2C9B
:1008D000561C6C2C56106D2C5614BB01BC014717CE
:1008E00008000A3083120313CD00CC011830D50064
:1008F000D201D0010130CB00D101D611CF13C713E3
:100900005610CF12D6104712CF11080083120313CE
:10091000E001E00ACD08031D6010DE01DE0ACC080C
:10092000031D5E105E08E005DF0109305402031963
:10093000DF0A5F086005031DD401E201E20ACD0869
:10094000031D6210E10155084C02031CE10A610815
:1009500062050319AD2C4C08D500E401E40AD50862
:10096000031D6410E301471EE30A630864050319CD
:100970000800CF16B901BA01080083120313480812
:10098000D9004A08DA005108013A0319CE2C033A7B
:100990000319D02C013A0319D22CD32CA522D32C25
:1009A0006F22D32C3722510AD10004305102031C8C
:1009B000DB2C0130D1005908C8005A08CA000800D1
:1009C00083120313CF1FE62C0830D700460AC60057
:1009D000DF014608143C031CDF0ADE01570303193C
:1009E000DE0A5E085F050319002D4608283C031C3B
:1009F000C601C8018030CA00FF30D800DB22302D8C
:100A0000F501D61CF50AF401F40ACD08031D741093
:100A1000740875050319172DC8018030CA004C08E9
:100A2000FA000A30FB0026227E08D800212DC801DA
:100A30008030CA004D08FA000A30FB0026227E08EA
:100A4000D800F701F70AD808031D7710F601D61C65
:100A5000F60A7608770503192F2DFF30D800DB2220
:100A6000E1014608143C031CE10AE0010230570290
:100A70000319E00A600861050319492D4608283C5E
:100A8000031CC601C8014030CA00FF30D800DB2279
:100A90006B2DF501D61CF50AF401F40ACD08031DEF
:100AA0007410740875050319602DC8014030CA0020
:100AB0004C08F8000A30F90015227E08D8006A2D8B
:100AC000C8014030CA004D08F8000A30F90015226C
:100AD0007E08D800DB22E3014608143C031CE30A2D
:100AE000E201033057020319E20A620863050319A1
:100AF000842D4608283C031CC601C8012030CA00CA
:100B0000FF30D800DB22A12DF501D61CF50AF40137
:100B1000F40ACD08031D7410740875050319962D89
:100B2000C8012030CA00FF30D800A02DC8012030F5
:100B3000CA004C08FA000A30FB0026227E08D800C2
:100B4000DB22E5014608143C031CE50AE4010430FD
:100B500057020319E40A640865050319BA2D46080B
:100B6000283C031CC601C8011030CA00FF30D80061
:100B7000DB22D72DF501D61CF50AF401F40ACD08C5
:100B8000031D7410740875050319CC2DC8011030AD
:100B9000CA005408D800D62DC8011030CA004C082D
:100BA000F8000A30F90015227E08D800DB22E701A0
:100BB0004608143C031CE70AE601053057020319F6
:100BC000E60A660867050319F02D4608283C031C51
:100BD000C6011030C800CA01FF30D800DB22252E24
:100BE0001030C800CA015508FA000A30FB0026225E
:100BF0007E08D800F501F50AD808031D7510F40128
:100C0000D61CF40A740875050319082EFF30D800A5
:100C1000F901D61CF90AF601F60ACD08031D761073
:100C20007608F905F70118304C02031CF70A77081B
:100C3000F905F8014C0855020318F80A78087905F7
:100C40000319242EFF30D800DB22E9014608143CAA
:100C5000031CE90AE801063057020319E80A68088C
:100C6000690503193E2E4608283C031CC6010830BE
:100C7000C800CA01FF30D800DB22652E0830C8004A
:100C8000CA015508F8000A30F90015227E08D8007C
:100C9000F701D61CF70AF401F40ACD08031D7410FD
:100CA0007408F705F50118304C02031CF50A7508A5
:100CB000F705F6014C0855020318F60A7608770581
:100CC0000319642EFF30D800DB22EB014608143CE8
:100CD000031CEB0AEA01073057020319EA0A6A0803
:100CE0006B0503197E2E4608283C031CC601043000
:100CF000C800CA01FF30D800DB228A2E0430C800A9
:100D0000CA014B08D8004B08053A031D892E0B3049
:100D1000D800DB22EF01CF1BEF0AEC01D61DEC0A55
:100D20006C08EF05ED014608143C031CED0A6D0844
:100D3000EF05EE01083057020319EE0A6E086F0541
:100D40000319B92E4608283C031CC601C801083007
:100D5000CA00FF30D800DB22C8010430CA00FF30CF
:100D6000D800DB22C8010230CA00FF30D800DB22E5
:100D7000F42EC8010830CA005208FA006430FB00A3
:100D800026227E08D800D808031DC82EFF30D800C0
:100D9000DB22C8010430CA005208F8006430F900B0
:100DA00015227E08FA000A30FB0026227E08D800B1
:100DB000F501F50AD808031D7510F40164305202DC
:100DC000031CF40A740875050319E82EFF30D800D7
:100DD000DB22C8010230CA005208F8000A30F900CC
:100DE00015227E08D800DB22F301CF1BF30AF001A5
:100DF000D619F00A7008F305F1014608143C031CEB
:100E0000F10A7108F305F201083057020319F20ADA
:100E1000720873050319232F4608283C031CC601DA
:100E2000C8010130CA00FF30D800DB228030C80082
:100E3000CA01FF30D800DB224030C800CA01FF30B1
:100E4000D800DB220800C8010130CA005008FA00AF
:100E50006430FB0026227E08D800D808031D322FFC
:100E6000FF30D800DB228030C800CA015008F800EB
:100E70006430F90015227E08FA000A30FB002622B1
:100E80007E08D800F501F50AD808031D7510F40195
:100E900064305002031CF40A740875050319522FBC
:100EA000FF30D800DB224030C800CA015008F800EB
:100EB0000A30F90015227E08D800DB22080007302E
:100EC000831203139F00C030831681000B17831217
:100ED00012109214121507301205DE0078305E04ED
:100EE00092000F30831692008B178C147124DB0153
:100EF00064305B020318802FE024BD24DB0A782FC6
:100F0000D61C862FE024BD24E8228C2F0830D70081
:100F1000E024BD24A5238624C71B7124802FD5304F
:100F200083120313A000C430A100BB30A200DC3048
:100F3000A300A401A501A601A701A801A901AA0176
:100F4000AB01AC01AD01AE01AF01C001C101B70100
:100F5000B801C201C301C401C501B001B101B201B0
:100F6000B301BE01BF01BD01C6014714C71447113B
:100F7000FF30C8000130C900FF30CA00C711471256
:100F8000C7120130CB000A30CD004713FF30CE002E
:100F9000C7134F10CF104F15CF15D0014F16CF12DA
:100FA000D101D2014F17D301D401CF13BB01BC0132
:100FB0001830D5005610D701FF30D800D901D6100F
:100FC000DA015615D6118A110A125F2F8312031304
:100FD0008C1CEF2F83168C1CEF2F15208C10831286
:100FE000360E8400350E8A00340E8300FF0E7F0E0D
:020FF0000900F6
:02400E00461F4B
:00000001FF
